:020000041000EA
:1000000000B5324B212058609868022188439860DF
:10001000D860186158612E4B002199600221596106
:100020000121F02299502B49196001219960352056
:1000300000F044F80222904214D00621196600F024
:1000400034F8196E01211966002018661A6600F04E
:100050002CF8196E196E196E052000F02FF8012189
:100060000842F9D1002199601B49196000215960AB
:100070001A491B48016001219960EB211966A021F2
:10008000196600F012F800219960164914480160C1
:100090000121996001BC002800D000471248134993
:1000A000086003C880F30888084703B5996A0420EC
:1000B0000142FBD001200142F8D103BD02B5186610
:1000C0001866FFF7F2FF186E186E02BD00000240BE
:1000D000000000180000070000035F00212200005C
:1000E000F4000018222000A00001001008ED00E03C
:1000F00000000000000000000000000074B24E7A12
:1001000000200420F7010010C3010010C5010010F9
:10011000C1010010C1010010C1010010C101001097
:10012000C1010010C1010010C1010010C701001081
:10013000C1010010C1010010C9010010CB01001065
:10014000CD010010CD010010CD010010CD01001037
:10015000CD010010CD010010CD010010CD01001027
:10016000CD010010CD010010CD010010CD01001017
:10017000CD010010CD010010CD010010CD01001007
:10018000CD010010CD010010CD010010CD010010F7
:10019000CD010010CD010010CD010010CD010010E7
:1001A000CD010010CD010010CD010010CD010010D7
:1001B000CD010010CD010010CD010010CD010010C7
:1001C00000BE00BE00BE00BE00BE00BEEFF3058054
:1001D000103800BEF2EB887184990510A8990510BB
:1001E0003402001090A31AE700201F49086006C8D7
:1001F00081F3088810471D48006800282FD10DA4FE
:100200000ECC002902D000F012F8F9E71849194A7B
:10021000002000E001C19142FCD1174988471749ED
:1002200088471749884700BEFDE701C901C29A42C5
:10023000FBD37047A8990510C00000207010002063
:1002400058A90510000004200000042058A905103A
:10025000001004200010042000000000704709482E
:1002600003F002FC0047000008ED00E0000000D0B1
:1002700070100020DC2A0020D92700106503001030
:10028000952700105756000006005250ABB360533C
:100290002C7D011006005250861C03023C7D01108B
:1002A000060052505422A29D547D01100500525068
:1002B000DE65F46858A90510F8B5C04610B5064CBF
:1002C0002378002B07D1054B002B02D0044800E017
:1002D00000BF0123237010BDD011002000000000DA
:1002E000706B0110044B10B5002B03D00349044878
:1002F00000E000BF10BDC04600000000D411002087
:10030000706B011010B50400124B1A68501C186075
:100310000A2103F0FDFB002911D00F4B1A6851424E
:100320005141C9B21960002011F084FAFA21890004
:1003300020000CF0A3FC20000CF0BCFC10BD00F071
:1003400095F8064B1B68002BE7D0054B188806F084
:1003500055FCE2E7D8140020F00600201C25002000
:10036000B02A002010B504F0AFF911F09BFA002874
:1003700032D115F073FE1B4B1A688023DB0153400A
:10038000E022D2011340184A1360184B02221A606F
:1003900010F01AFB08F0E2FD154A1649164806F05F
:1003A000E3FB1648164C44600EF048FA200006F0B5
:1003B00007FC144C144BA360FA21890020000CF0B8
:1003C0005DFC20000CF076FC01200FF06FFDFA20A0
:1003D000800001F049FBFAE70C4804F039F90120EC
:1003E000404210BD00C0044000D0044000E0044082
:1003F0003504001011040010C86B011034210020D6
:10040000210500109424002005030010706B0110DA
:1004100000B583B004A80088092902D0002003B0E9
:1004200000BD00900739024805F0C2FBF7E7C0465F
:10043000B22A002010B504000A2901D0002010BD06
:10044000002102980CF0BDFC013843425841054B95
:100450001860054B1C800028F0D0200006F0CEFB71
:10046000ECE7C0461C250020B02A002010B5204B28
:100470001A688023DB015340E022D20113401D4A59
:1004800013601D4B04221A60194B1B68DB05FBD55A
:10049000174B5B6898B2000180B21B041B0E184317
:1004A00003F012FF154903F008FF03F035FF144A6B
:1004B000144B03F068FD144A144B03F06EFD020068
:1004C0000B000020124903F05EFD03F031FE041C16
:1004D000104903F0F2FE03F019FF0F4B1880201CA7
:1004E00003F01AFF02000B000C4804F0E1F810BD05
:1004F00000C0044000D0044000E0044006345338FB
:10050000643BDF4F8D97E63F7FC2D9AD65325C3FDC
:1005100000003B400000C842B22A0020906B01104E
:1005200010B588B0042806D11378602B05D0B72BFE
:1005300030D0052B2AD008B010BD9378022BFAD109
:1005400006A80EF037FA06A80CF088FD0100154841
:1005500004F0AEF804AC06220021200003F04AFFAC
:10056000C8208000002302930733019300940023E6
:100570000022010009F074FC0B491F200FF0FEFC63
:1005800001200FF04FFDFFF771FFD4E7074B00226A
:100590001A60D0E7064B18880223064A092106F0A4
:1005A00039FBC8E7A86B0110F40600201C250020C9
:1005B000B02A0020B22A002010B58300084A9446D1
:1005C00063441C6840226240C024144080225201CF
:1005D00013431C60C000034B9C466044416010BD47
:1005E00004C001400040014080000B4B9C46604429
:1005F00000290DD00823002A0CD0042213430268DE
:1006000053400C2213408022520110430360704774
:100610000023F0E70022F1E704C00140002909D0DF
:100620008000094B9C46604480239B0118430223B1
:10063000036070478000044B9C466044C0239B01CC
:10064000184302230360F4E704C0014070B5D023CF
:100650001B061B689D00094C2C59204207D19B00AA
:100660002043064C18510D2000F0D0F970BD044B0A
:10067000044ACC21044802F091F8C0463C250020F1
:100680004C6C01100C6D0110786C011010B5040059
:10069000D0231B061B689B000A4A9B5818420BD0AC
:1006A0000D2000F0CDFAD0231B061B6805499B00E6
:1006B0005A58A2435A5010BD034B044AD62104484D
:1006C00002F06CF83C250020BC6C0110E86C0110B5
:1006D000786C0110072303409B00C00899403C3010
:1006E0008000014BC150704700400140F8B5070041
:1006F0000C0016001D00FFF7EDFFFB089B00ED1836
:100700000720384080008440002E04D080239B01C5
:100710001D432C60F8BDC0239B011D432C60F9E7ED
:1007200010B5D0231B061B68002B03D0024BFFF72C
:10073000DDFF10BD014BFAE73041014000410140AF
:1007400010B501238340D0221206936293610521E4
:10075000FFF732FF10BD0000034B1B68022018405A
:10076000431E9841C0B2704700C00640EFF31080AE
:1007700072B6034B1B68002BFBD0BFF35F8F704733
:100780002C0100D0BFF35F8F024B00221A6080F370
:10079000108870472C0100D0F8B506000C00150039
:1007A000FFF7E4FFE308F718F15C0722224001237A
:1007B00093400B4205D1DBB20B433B70FFF7E2FFE6
:1007C000F8BD2100280002F083F8F0B583B00600E0
:1007D000019114001F00FFF7C9FF00E00134BC4283
:1007E0000CD8E308F518F35C0721214001228A4068
:1007F0001A42F3D1D2B21A432A7001E001246442B2
:10080000FFF7C0FF002C02DB200003B0F0BD019B0E
:10081000002BF9D0089802F05BF8000070B50500D5
:100820000C00FFF7A3FFE308EE18EA5C07210C4079
:100830000123A340134204D09A433270FFF7A2FF72
:1008400070BD034B034A2C31034801F0A7FFC0469B
:10085000406D0110A46D0110606D0110002307E0D0
:10086000054A9A189200BFF35F8F0021116001338F
:100870001F2BF5D97047C04640000034054A107858
:10088000431CDBB21370172B02D9130010221A700D
:100890007047C04613070020074B9B68103080004C
:1008A0001950BFF35F8FBFF35F8F044B00211960B6
:1008B00082F310887047C04600ED00E0240100D0AC
:1008C0001F23181A7047000010B5091A081F0A4B99
:1008D0009C466144094A914208D8C30706D4401097
:1008E0004005400D064B184380B210BD054B064A2B
:1008F000A321064801F052FFFC070000FE0F000094
:1009000000E0FFFFB46D011024700110E46D0110D0
:1009100010B5091A04394C08090B08D14905490DCD
:10092000064A11430180064B2343438010BD054B0B
:10093000054AAB21054801F031FFC04600F0FFFF3A
:1009400000F8FFFF246E0110F86F0110E46D011034
:1009500001238340034A10681840431E9841C0B2E7
:100960007047C04600E100E0002904D0034B186046
:10097000034B18607047034B1860FBE780E200E010
:1009800000E100E080E100E010B5012383401800A1
:10099000FFF7EAFF10BD000001238340014A136006
:1009A0007047C04600E200E0024B9B6810308000B8
:1009B000C058704700ED00E070B504000D00EFF383
:1009C000108672B60C4B1B68002BFBD0BFF35F8FF9
:1009D0002000FFF7E9FF094B984201D0A84205D15A
:1009E000320029002000FFF757FF70BD044B054A75
:1009F0008621054801F0D2FE240100D0CD0100106F
:100A0000346E011058700110E46D0110F0B5DE462F
:100A100057464E464546E0B589B0814601911500DE
:100A2000EFF3108A72B6744B1B68002BFBD0BFF338
:100A30005F8F724B0027DF57002F40DB7C00E419EB
:100A4000A4006F4824180622A2566C4B1A706D4BF6
:100A50009A684B4610339B00D35898461E001B1AC9
:100A60002F2B38D9684B98452FD105AE674B338073
:100A70007B009B46D8198000614B98464044023069
:100A80006349FFF721FF7080624BB380FF23B3718E
:100A9000F571019B07935F44BF0047440ECE0EC71C
:100AA00001231C43A046524641464846FFF7F4FE48
:100AB00009B0F0BCBB46B246A946A046F0BD564BB5
:100AC000564AD721564801F069FE564B534ADE215B
:100AD000534801F063FEC04340440C2103F018F872
:100AE000002912D101239E43B34633000026DA7950
:100AF000AA4211D90621595600290CDB4A00521886
:100B000092001E003E4B9B18F1E7474B434AEA21F7
:100B1000434801F043FE1E00002E3AD005AB434A85
:100B20001A80813A5A800623F3560293002B17DA73
:100B30003F4805AB9B469880029A9A71DD71019AF5
:100B40000792301D2100FFF7BFFEB080B7717B0018
:100B5000DB199B002A4FFF185B4607CB07C7A2E7AC
:100B60007800C0198000264BC0180430321DB388AD
:100B7000D90A1C2907D15B055915023149005118C2
:100B8000FFF7A2FED5E72B4B2B4AB121244801F0F9
:100B900005FE05AE1D4B33807B000293D819800003
:100BA000174A9046020042440392901C1849FFF7EE
:100BB0008BFE7080039A101D5946FFF785FEB080AA
:100BC0001E4B5A464146521A524153431B0DB371B4
:100BD000F571019A0792029B9C466744BF00474407
:100BE0000ECE0EC7114B5A461380813B5380012312
:100BF0001C43A04657E7C046240100D0C52A002068
:100C00001407002000ED00E0CD01001000A1FFFF5F
:100C10004407002001BDFFFF6C6E01104070011001
:100C2000E46D0110946E0110BC6E011001480000CB
:100C300001BD0000306F011030700110AAAA000041
:100C4000F0B5CE46474680B583B006000D00EFF301
:100C5000108872B6564B1B68002BFBD0BFF35F8F1A
:100C6000544B9A6834001034A300D758524B9F421B
:100C700007D0AF4200D198E00197504BFB1A2F2BC1
:100C800009D9424639003000FFF706FE03B0C0BC68
:100C9000B946B046F0BD3000FFF75AFE814600214C
:100CA0003000FFF771FEBFF35F8FEFF3058100297E
:100CB00001D08C4211D10123019C9C430022A368E6
:100CC000AB4212D00622A256002A0DDB53009B181D
:100CD0009B002200394CE418F1E73621384B394AA1
:100CE000FF31394801F05AFD2200AB4256D10625AA
:100CF0006557002D38DB6B005B199A002F4B9B1852
:100D00009A68A260DA79E27106229A56A2719B79FA
:100D10005BB2002B0FDA2D48A0806B005B199B00A3
:100D2000264AD3182A4A117899711570494630001D
:100D3000FFF72AFEA5E7201D6B005B199B001F4AE9
:100D40009B181A1D9B88D90A1C2907D15B055B15C6
:100D5000023359005118FFF7B7FDDDE71D4B1E4A5E
:100D6000B121194801F01AFD002912D1002A0ED034
:100D7000FF239371194B9380154A1378A371184B75
:100D80000E49641A644163431B0D1370CEE70A4F8A
:100D9000F2E7201D1349FFF7BBFDC7E76A21124B9D
:100DA000084AFF31084801F0F9FC034F69E7C046E3
:100DB000240100D000ED00E0CD0100101407002058
:100DC000486F011010700110E46D011001BD0000AA
:100DD000C52A0020306F01103070011001BDFFFFE7
:100DE000AAAA00004E0700207C6F011010B5032353
:100DF00004009C43064A9446644422681840C0009C
:100E0000FC3383409A43130081400B43236010BDA1
:100E100000E400E070B5012101432E4BCB1A2F2BCB
:100E200028D8EFF30583002B2BD0EFF3108C72B68C
:100E3000294A1268002AFBD0BFF35F8F274A0400BB
:100E4000244D641B64416243120D54B2244A9268DB
:100E50009B00D2588A421BD00022032A32D853006A
:100E60009B189B001B49CB189B795BB2A3421FD0F8
:100E70000132F2E7C7211B4B1B4A49001B4801F016
:100E80008DFC92211A4B184AFF31184801F086FC5C
:100E9000134A92681749D150174B1A7882711C7007
:100EA000BFF35F8F0C4B00221A608CF3108870BD6B
:100EB0000D005300991889006918FF268E710F4A9A
:100EC0008A80E9E7D1210E4B074A4900074801F023
:100ED00065FCC04614070020240100D0AAAA000027
:100EE00000ED00E0846F0110DC6F0110E46D011073
:100EF000AC6F0110CD010010C52A002001BDFFFF1D
:100F0000B86F01100022044B02E0044902C3013211
:100F1000072AFAD97047C04600E400E0808080804C
:100F200010B5FFF7CDFC01000148FFF777FC10BDBD
:100F3000D92A002000B583B00100064B0093052399
:100F400000220548FFF741FC002801DB1F23181A87
:100F500003B000BDC06F0110D92A002070B5040095
:100F60000E001500FFF78AFC0100200000F006F8D3
:100F7000A680E580BFF35F8F70BD0000024B9C46EA
:100F800061448900016070474000003410B50400DE
:100F9000FFF774FC01002000FFF7F0FFFF2323712F
:100FA000BFF35F8F10BD10B50400FFF767FC0100B1
:100FB0002000FFF7E3FFFF23237100236371BFF3DA
:100FC0005F8F10BD70B505000C00080000F000FF39
:100FD0000949200000F040FEFFF750FC074B9C46FB
:100FE0006044800068602C75D0231B061B786B75ED
:100FF000A400034BE55070BD0913001040000034FD
:101000002C2500200A4B1A68EFF3108172B6136882
:10101000002BFCD0BFF35F8F054B1B68BFF35F8FC6
:1010200000221A6081F3108840BF00200021704721
:101030005427002010B5002922D003681B7B994259
:101040001ED8174B9C466144090183689C46614445
:101050000C684968002A19D003681B7B9A4215D88E
:1010600083680F488446624412019A1810685368D6
:10107000020001208B4201D80ED00020C0B210BD6A
:10108000084B094A3C21094801F088FB054B064AF8
:101090003C21064801F082FBA242EFD8EDE7C046B2
:1010A000FFFFFF0F3072011094740110F4710110F2
:1010B00010B500291ED0037B99421BD84B005B184A
:1010C000033B0468A4466344002919D0002A1DD0BC
:1010D000914221D0002A25D0047BA24222D8046864
:1010E00050008018033820188170197800291FD10A
:1010F0001A7010BD104B114A6821114801F04EFBC7
:10110000104B114A6F310E4801F048FB0F4B0E4A4D
:1011100070210B4801F042FB0D4B0B4A712108482E
:1011200001F03CFB044B054A6821054801F036FB01
:1011300041701A70DDE7C04654720110007501104D
:1011400070720110BC720110DC740110C8720110C1
:10115000D472011070B506000D001400002914D0DF
:10116000002A14D0806873689847002806D02200AF
:1011700029003000FFF79CFF280007E02A0021002B
:101180003000FFF795FF200000E0100070BD080060
:10119000FCE70000F0B583B00500009201930AABB4
:1011A0001C780BAB1F78002C26D003685A7B944226
:1011B00007D10123002B19D1002C3BD1200003B013
:1011C000F0BD002C0CD01A7B944209D81A68630039
:1011D0001B19033BD3189B78002BEBD00123E9E7C5
:1011E0003E4B3F4A68213F4801F0D8FA3E4B3F4A08
:1011F00067213F4801F0D2FA03689C7B002CDBD0CA
:1012000012D01A7B94420FD862001219033A19685F
:101210008C46624451789973002900D1D973002318
:10122000937053701370C7E72C4B2D4A68212D48DB
:1012300001F0B4FA002C3AD02B681B7B9C4236D8C4
:101240002C4BE3181B01AA6894466344009A1A6069
:10125000019A5A60089A9A60099ADA602E68002CFE
:101260002BD030D0337B9C422DD863001B19033B1D
:1012700032689446634400229A705A701A70717BE7
:1012800022003000FFF766FF7073844200D095E7BC
:10129000287D009A019B00F027FD061E01D0002F3B
:1012A00017D00C9B002B00D188E71E7086E7124BED
:1012B000124A3C210E4801F071FA114B114AA52146
:1012C000084801F06BFA054B054A6821054801F012
:1012D00065FA2868210000F03FFFE2E75472011030
:1012E0000075011070720110EC7201100C75011084
:1012F000F4710110FFFFFF0F3072011094740110A0
:10130000F0710110F0740110F0B5DE4657464E46FC
:101310004546E0B58BB00990002308938200B54B99
:10132000D658370052E0B44BB44A3F21B44801F0DC
:1013300035FAB44BB44A3C21B44801F02FFA0029E5
:1013400001D1002869D10021404600F0FBFEA042F7
:1013500019D12A686B6806920793AB689846EB68C8
:101360009A464346002B14D0002C18D03B681B7BB8
:101370009C4214D8631EFA68D35C08931B0218437E
:101380003861002015E0A24BA24A8E219F4801F04F
:1013900005FAA14B9F4A92219C4801F0FFF9994B15
:1013A0009E4A4121994801F0F9F900239A4698464E
:1013B00000207B68BFF35F8F00221A6086F31088DD
:1013C0004346002B32D1002800D10CE100F000FC94
:1013D00002000B1EA7DB0020002106900791786811
:1013E000EFF3108672B601680029FCD0BFF35F8F5F
:1013F000396888464C7B002CD7D09AD0097B8C4228
:1014000097D8874965182D01B9688C4665442868C6
:101410006968801A9941002991DD2A686B680998EA
:1014200000F062FC00239A469846C2E7089B1B0224
:101430002343994651461800C04705000E007A68BC
:10144000EFF3108B72B6136859424B41D9B2002B9F
:10145000F9D1BFF35F8F002E1EDB002E46DD3B6906
:10146000002B47D04B456DD100F0B2FB02000B1EA4
:101470006EDB52197341002B70DB002B72DB0021F5
:10148000049101310391029451460191414600912A
:101490003800FFF77FFE4CE03B69002BDDD04B4569
:1014A00014D1069A079B521BB341002B14DB002B6F
:1014B00016DB002104910131039102945146019100
:1014C000414600913800FFF765FE32E0554B514A26
:1014D000A1214E4801F062F901225242524BE6E747
:1014E000454B464A3F21464801F058F9002E01D1AC
:1014F000002DB4D13B68002C50D05A7B944237D198
:10150000012100294AD1DA7B002A4DD19A7B002A99
:1015100003D1DA7B002A5AD19C73DC73002C5CD097
:101520003B681B7B9C4258D8FA68013C135D013331
:10153000135500233B617A68BFF35F8F13608BF311
:10154000108843E7374B334AA421304801F026F98D
:10155000294B2A4A3F212A4801F020F90122524210
:10156000314B8AE7244B254A3F21254801F016F9E3
:10157000002C0DD01A7B94420AD862001219033A4B
:101580001868844662449278002ABAD00121B8E7EC
:10159000264B274A6821274801F000F9264B274AA5
:1015A000F621244801F0FAF8002A0AD0197B8A4271
:1015B00007D851008A18033A19688C46624454705F
:1015C000A4E71A4B1A4A68211A4801F0E7F81C4BA5
:1015D0001A4AFB21174801F0E1F80A4B0F4A412152
:1015E0000A4801F0DBF80BB0F0BCBB46B246A94696
:1015F000A046F0BD2C250020CC70011060740110B5
:10160000E87001103072011094740110F47101102F
:1016100014730110787401102C730110B874011048
:10162000FFFFFF0F38730110FFFFFF7F547201109F
:10163000007501107072011074730110CC740110E8
:101640009873011010B50C4B5B68002B04D00A2175
:101650000A48FFF793FC10BD074C2300084A1021ED
:10166000206800F07FFC032000F0A6FA0321200090
:10167000FFF7A8FCEBE7C0465C07002054270020DA
:101680003510001010B5064B5B68002B01D00448E4
:1016900010BD044B044A5E21044801F07FF8C046A7
:1016A0005C070020AC730110A0740110F4710110EC
:1016B000F0B5DE4657464E464546E0B58BB080460F
:1016C00016001F00149B9A46159B994616AB1B7873
:1016D0009B461F2302AA9446634400221A702BE003
:1016E000002809D042461268127B904204D8421E5C
:1016F0004146C9688A5C41E0404B414A412141482A
:1017000001F04CF807984CE0361BAF41002F07DB87
:10171000002F11DA3C4B3D4A3F213D4801F03EF895
:10172000012676423B4FF3E7374B384A3F21384892
:1017300001F034F8002F4FDB43465A68EFF3108472
:1017400072B6136859424B41D9B20791002BF8D1B8
:10175000BFF35F8F1F3302AA9446634404930023B0
:10176000039302934B4601935346009332003B0090
:101770004046FFF70FFD031EB2D102004146496803
:10178000BFF35F8F00250D6084F31088002B29D0F4
:101790001F2302A98C4663441B78002BB2D112028E
:1017A0001043002B20D05B46002B1DD04946D0476C
:1017B00004000D0003000B431DD00029A4DB00F042
:1017C00007FA06000F1EAFDB36196F41002FB1DAA2
:1017D000012676420F4FADE70B4B0C4A3F210C48D8
:1017E00000F0DCFF012040420BB0F0BCBB46B2462B
:1017F000A946A046F0BD0798F6E7C0463072011032
:10180000B8740110F4710110CC70011060740110F3
:10181000E8700110FFFFFF7FF8B50400002900D138
:1018200062E04268EFF3108572B613685842434194
:10183000D8B2002BF9D1BFF35F8FCBB22268567BB1
:10184000B3421BD10120002848D0206988422BD008
:10185000090AC9B2002B2ED02068007B83422AD807
:10186000581EE668305C88422BD000206368BFF3C6
:101870005F8F00221A6085F31088F8BD002B0DD011
:10188000167BB3420AD85E00F618033E1768BC46C2
:101890006644B678002ED6D00120D4E7134B144A04
:1018A0006821144800F07AFF2C21134B134AFF31B2
:1018B000134800F073FF134B134A4121104800F006
:1018C0006DFF1900100000F047FC0028CED19921CF
:1018D0000E4B0A4A49000A4800F060FF23698B4218
:1018E000C4D100232361C1E70020C6E75472011070
:1018F0000075011070720110D0730110487401104E
:10190000F471011030720110B8740110F4730110F9
:10191000407D7047F0B587B006000F00EFF30583F8
:10192000002B1FD106246442E517A4197D418D4286
:1019300002D803D1844201D900240025002D14DBF4
:101940000494059500F044F902000B1E13DBA41A61
:101950009D41002D17DC14D03000390000F044F90F
:1019600007B0F0BD234800F0B3FF234B234A3F21CB
:10197000234800F013FF204B204A3F21204800F06D
:101980000DFF002CE8D0FFF77DFE002302930193AA
:101990001C4B0093049A059BFFF78AFE002818DA77
:1019A000DAE7002300E00023002BD5D1164B1A689C
:1019B000EFF3108172B61368002BFCD0BFF35F8F7A
:1019C000114B1B68BFF35F8F00221A6081F31088F0
:1019D00020BF0499059A0D4B5B6A9A42E3D80B48E5
:1019E000806A884203D29A42DBD00123DCE70123DC
:1019F000DAE7C046F8730110CC7001106074011072
:101A0000E870011005100010542700200040054028
:101A100070B504000D0000F0DBF802000B1E0ADBBD
:101A2000200029008018594100290ADB00290CDB1D
:101A3000FFF770FF70BD084B084A3F21084800F0CF
:101A4000ADFE012040420749F0E7034B034A3F2126
:101A5000034800F0A3FEC046CC7001106074011072
:101A6000E8700110FFFFFF7F10B5FA2292000023FB
:101A7000002102F0EBFBFFF7CBFF10BD70B584B087
:101A800005000C00EFF30583002B1ED1FFF7FAFDD4
:101A9000002302930193224B00932A002300FFF7B7
:101AA00007FE061E23DD20BFFFF7ECFD3100FFF728
:101AB000B3FE1C4B5B6A9C422DD81A4A926AAA421A
:101AC0002CD29C4225D0012026E0164B5B6A99421D
:101AD00009D8144A926A824207D2994201D0012061
:101AE0001AE0002018E0002016E0012014E00D4B61
:101AF0005B6A9C4209D80B4A926AAA4207D29C426E
:101B000001D0012008E0002006E0002004E00120D0
:101B100002E0002000E0002004B070BD0120FBE7DF
:101B2000051000100040054070B5EFF30580103837
:101B3000EFF3108C72B61A4B1B68002BFBD0BFF36F
:101B40005F8F01221300834016494B6316490B60D7
:101B5000164909780C00C440224214D0114A546A34
:101B60008200134D5259944206D38200114C1259EF
:101B700099430E4B197007E00A4A031D9B009958C0
:101B80009950002200E00022BFF35F8F044B002138
:101B900019608CF31088002A00D0904770BDC046B1
:101BA000280100D0004005403C700540D82A0020A4
:101BB000882800202C12002010B50100024A03489A
:101BC000FEF7EAFD10BDC04630750110C02A0020A6
:101BD000044B5B6A034A906A1900536A9942F9D12F
:101BE0007047C04600400540084B5B6A01E0074B68
:101BF0005B6A8B42FBD301E0044B5B6A8B4203D1EF
:101C0000024B9B6A8342F7D37047C04600400540B1
:101C100070B504000D00FFF7DBFF02000B00200091
:101C20002900801859418B4202D804D1824202D93E
:101C300001204042C117002902DBFFF7D5FF70BD2C
:101C4000024B034A3F21034800F0A8FDCC7001106D
:101C5000D8750110E870011070B504000D00EFF3A5
:101C6000108672B61B4B1B68002BFBD0BFF35F8F37
:101C7000002D1CD02000FEF797FE174B83420BD09F
:101C800019002000FEF798FE01212000FEF77CFEDF
:101C90000123A340114A1360A400114BE550BFF388
:101CA0005F8F0C4B00221A6086F3108870BDA20073
:101CB0000B4B0021D1500122A2400A490B789343DB
:101CC0000B7005492000FEF7BBFF00212000FEF746
:101CD0005BFEE4E7280100D0291B001038600540B6
:101CE0002C120020D82A0020F0B5DE4600B584B0C2
:101CF0000400150001921E000293FFF769FF03958F
:101D00008E4202D84ED185424CD9EFF3108B72B679
:101D1000274B1B68002BFBD0BFF35F8F254A17783A
:101D20000125A540EBB23B431370234B5D63221D9D
:101D300092000199D150A2002049029850501B6A8C
:101D40002B4212D11C4B1B6C2B4208D00020BFF33E
:101D50005F8F174B00221A608BF3108823E0184B1B
:101D6000184AC521184800F019FDFFF731FF8E42CF
:101D700014D802D1039B834210D80E4B1B78BB4270
:101D80000ED00D4B1D625D631F2004400123A34054
:101D90000E4A1360074B1F701E38D8E70020D6E7A5
:101DA0000120D4E7012004B080BCBB46F0BDC04692
:101DB000280100D0D82A00200040054088280020B3
:101DC00054750110BC7501107875011080E200E0B7
:101DD000EFF3108C72B60B4B1B68002BFBD0BFF3DC
:101DE0005F8F01238340084A136208490A789A43A7
:101DF0000A70BFF35F8F034B00221A608CF31088C8
:101E00007047C046280100D000400540D82A002075
:101E100010B500291ED0037B99421BD84B005B18DC
:101E2000033B0468A4466344002919D0002A1DD04E
:101E3000914221D0002A25D0047BA24222D80468F6
:101E400050008018033820188170197800291FD19C
:101E50001A7010BD104B114A6821114800F09EFC09
:101E6000104B114A6F310E4800F098FC0F4B0E4A90
:101E700070210B4800F092FC0D4B0B4A7121084871
:101E800000F08CFC044B054A6821054800F086FCF4
:101E900041701A70DDE7C04654720110E0760110FF
:101EA00070720110BC720110CC760110C872011062
:101EB000D472011070B506000D001400002914D072
:101EC000002A14D0806873689847002806D0220042
:101ED00029003000FFF79CFF280007E02A002100BE
:101EE0003000FFF795FF200000E0100070BD0800F3
:101EF000FCE7000010B50023437301338373037BB9
:101F0000C3730123027B9A4214D9002B0CD0027BAD
:101F1000934209D85A00D218033A01688C466244A9
:101F20000133DBB25370EDE70B4B0C4A68210C48D0
:101F300000F034FC002A09D0924207D8016853000F
:101F40009A18033A8A180023537010BD024B034AB3
:101F50006821034800F022FC54720110E076011061
:101F60007072011010B5017342608360FFF7C2FF09
:101F700010BD000070B50400081E00D170BD00291E
:101F800034D0237B994231D84B005B18033B226845
:101F9000944663445A78002AF0D02DD0237B9A428D
:101FA0002AD853009B18033B21688C4663445D7814
:101FB00000215970002825D0237B984222D8430065
:101FC0001B18033B21688C466344002159700100B3
:101FD0002000FFF76FFF060029002000FFF7CAFF6F
:101FE000020031002000FFF765FFC7E7084B094AF0
:101FF0006821094800F0D2FB054B064A68210648D3
:1020000000F0CCFB024B034A6821034800F0C6FBFA
:1020100054720110E07601107072011070B5050065
:102020000C00160000292FD034D0037B994231D800
:102030004B005B18033B0268944663445A78002ABD
:102040002ED19A78002A31D11978FFF793FF030037
:10205000002E0AD0EA7B002A2ED1AA7B002A03D1C7
:10206000EA7B002A3BD1AC73EC73002B3DD1002CF2
:102070004FD02B7B9C424CD82B6861000C19033C41
:102080001C190023637070BD254B264A3821264851
:1020900000F084FB254B264A6821264800F07EFB91
:1020A000254B204A3A21204800F078FB234B1D4A5B
:1020B0003B211D4800F072FB002A0AD0297B8A428E
:1020C00007D851008A18033A29688C466244547034
:1020D000C3E7164B164A6821164800F05FFB184B01
:1020E000104A4221104800F059FB002B0BD02A7BEC
:1020F000934208D843001B18033B2A689446634464
:1021000000229A70B3E7094B094A6821094800F098
:1021100045FB064B064A6821064800F03FFBC046D7
:10212000F0750110B8760110F875011054720110A5
:10213000E076011070720110347601105C760110A7
:102140009873011070B504000A00457B2900FFF761
:1021500065FF6073280070BD70B50400002967D06A
:10216000437B8B420ED0002911D0037B99420ED8BD
:102170004B005B18033B0268D0188378002B0CD10E
:10218000002056E00121FFF7DDFF012051E0294B3F
:10219000294A6821294800F001FB002B20D0227B2E
:1021A00093421DD85A00D318033B2268D2182568E1
:1021B000EB5C8B421AD0002B1BD0227B934218D8A9
:1021C0005A00D318033B2268D21853788B4216D09A
:1021D000002BF0D11A4B1B4A6B211B4800F0DEFA92
:1021E000144B154A6821154800F0D8FA437813704B
:1021F00007E0104B104A6821104800F0CFFA4378EE
:10220000537000238370437001222000FFF706FF04
:102210000200617B814205D02000FFF74BFE607316
:10222000012006E0094B074A7121074800F0B6FA81
:10223000002070BD54720110E07601107072011020
:10224000B86F0110A0760110F875011080760110AA
:1022500070B5046BE30701D4200070BD020030327A
:10226000C0239B0113430A4A1A60456A826AAD0182
:10227000AD18AD02062000F0BDF9064901F048FC9A
:102280000100280001F044FC0021FFF7C1FCE3E756
:10229000010300004E0E000070B504000E00150092
:1022A000FFF7D6FF22002C32E16A4E4035408023F2
:1022B0005B0113431D60206370BD000070B5050015
:1022C0000C00062000F096F9C000210001F020FC6F
:1022D000C60908D00E4B9E4216D87F231840013005
:1022E0003400460800E001246C62AE620022002146
:1022F0002800FFF7D1FF062000F07CF98000A10143
:10230000891901F005FC70BD0026024CECE7C046BF
:10231000FEFF0000FFFF000010B505394901013A3A
:10232000D2001143002B09D002220A43012B07D00F
:10233000002111436E22FFF7AFFF10BD0022F4E72A
:102340000421F6E7002909D00A22064B9C46604486
:10235000434258414000044BC25270478022520011
:10236000F3E7C0460080FCBFD829002070B5050007
:102370000C00062000F03EF9061E27D0164B9D42A9
:1023800026D08022D203154B1A60154B1A60154BCC
:102390009B6811009943FAD100212800FFF7D2FF72
:1023A00021002800FFF78AFF0600002301220821F0
:1023B0002800FFF7B1FF2A002C3280239B01134332
:1023C00010221A60084B2B630323AB64300070BDEE
:1023D00080221204D7E7C0460080034000E000409E
:1023E00000F0004000C0004001030000F8B5DE46E8
:1023F00057464E464546E0B505000F0092460A9AFC
:10240000934250D31A0E91461E020A9A00233000BE
:10241000494601F0BBFB80466C006419A400304BB8
:102420009C4664446368834200D260602B1FDBB229
:102430009B46012B3DD9C0239B01234380221201DF
:102440001A60AB00274A9958002907D0506901F05B
:102450005FFB431C5800C0180338FDD253465A0195
:1024600023685A40E0231A4080235B0123431A600B
:102470005A46012A28D980239B0123438022120136
:102480001A6043466360424600233000494601F02B
:102490007DFBAD00134B58510120F0BCBB46B2464A
:1024A000A946A046F8BD104B104A3321104800F051
:1024B00075F9012FBFD1C0239B01234303221A606A
:1024C000A368DB07FCD5C9E72168794003220A40ED
:1024D0001A60A2680123BB401342FAD0CBE7C04682
:1024E00000800040B0140020EC7601104877011005
:1024F0000077011030B583B00C2000F011F9FEF721
:102500002BF900280DD0002304E099002D4A2E4815
:1025100088500133092BF8D92A4B2C4A5A6203B050
:1025200030BD2B4B00229A6700F002F9294B0122A3
:102530001A60274B5B6C012BFBD1274B03221A60DF
:10254000234B9B6B012BFBD1013300930433234AB4
:102550000121234800F054F805230093214A01216A
:10256000214800F04DF8214B009300220221042065
:10257000FFF73CFF1E4D00952B0000220121052096
:10258000FFF734FF104C00942300002200210720A5
:10259000FFF72CFF00942300002200210820FFF702
:1025A00025FF0A4B00932300002200210920FFF79A
:1025B0001DFF00952B00002200210620FFF716FFCB
:1025C000ADE7C046B0140020006CDC021BB7000071
:1025D000008000403CB0004030B00040002F6859FF
:1025E00000800240008C864700C00240001BB700FC
:1025F000405973078000014BC0587047B014002049
:10260000F0B5C64600B504000E0017001D0037489F
:1026100001F07EFA8046364BFA18364B9A4239D88A
:102620000100380001F074FA0200103A98235B00B0
:102630009A4235D86B1E062B38D8069B013B062BD9
:1026400034D83F09474537D32D04069B1A03154359
:102650002368002B36DB284B9C4244D08022520159
:10266000264B1A60264B1A60264B9B681100994333
:10267000FAD12660A060231DC02292011A432123B3
:1026800013602368002BFCDAE5600823136080BC2C
:10269000B846F0BD1C4B1D4A11211D4800F07EF8C4
:1026A0001C4B1A4A19211A4800F078F81A4B174A9D
:1026B0001C21174800F072F8184B144A23211448C3
:1026C00000F06CF822683F231340B342C3D1A368E3
:1026D0001B051B0D8342BED1E368EE22D2021340DC
:1026E000AB42B8D1D3E780229201B9E7001BB70013
:1026F00080E84BD380F8A93200C0024000E00040DF
:1027000000F0004000C00040587701107C780110B4
:10271000B8770110F8770110147801106078011073
:1027200080239B000343014AD36270470080054029
:10273000064BAA2212011A602F22DA60044B054AC6
:102740001A60024B5B68002BFBDA704700400240C6
:102750000060024000B0FA0000BEFDE703000A4A34
:102760001268002A08D0084A1068C318074A9A421B
:1027700006D3054A13607047034A05491160F2E722
:1027800001204042F7E7C0469024002000000420CA
:10279000DC2A002010B5FFF7DFFF000010B582B083
:1027A0000C001900002A0CD0084B002A0BD0019213
:1027B000009323000200064801F07AFF0120FFF792
:1027C000CBFF044BF1E7034AF1E7C04688780110DC
:1027D000987801106496051070B52B4B2B4A1A603F
:1027E0002B4B2C4A1A602C4B9A682A4B9343FAD1F4
:1027F0002A4C01E008CC9847294B9C42FAD3FFF7BA
:1028000079FE234B274A1A60234B9B68DB43DB018D
:10281000FAD1254B40229A675A671A67DA66234C29
:1028200009E0234B234A87212348FFF7B7FF200005
:10283000FEF7ACFB0834214B9C4209D22368002BE5
:10284000F5D0012BEDD12000FEF7ADFB0834F2E707
:102850001B4CA1681B4DC022280001F0D1FDA560D2
:10286000EFF30583002B00D000BEFDF7F7FFFEF766
:1028700049FBFEF7E7FE144C01E008CC9847134BE8
:102880009C42FAD370BDC04600E00040BFCDFBFEC5
:1028900000F00040FE7F3C0000C0004058100020C7
:1028A00068100020FFFFFF0100F0014050100020E1
:1028B000C87801104C790110E878011058100020F8
:1028C00000ED00E0000000206810002070100020E3
:1028D0000FB400B583B0084801F0BAFE049B002B8A
:1028E00007D005A90191180001F0C2FE034801F0CC
:1028F000AFFE0120FFF730FF2C790110CC740510DA
:1029000010B50148FFF7E4FF3C790110704710B59E
:10291000002802D00B684968984710BD01000020CC
:1029200007E083001B185B00501C08601078C0187B
:1029300030380A681378303BDBB2092BF1D9704785
:10294000F0B5DE4657464E464546E0B583B0934661
:102950001F000C9B9A460D9C0E9B99460F9B9B0754
:1029600003D0B8460F00060022E00192A346884635
:102970004E46B9460700B44207D2551C4B46414665
:102980002020B84701342A00F5E73D004F465C4659
:10299000019B9B46B1464646B84637002E0007E0ED
:1029A000013C551C5346185D43463900B0472A0088
:1029B000002CF5D135003E0047460F9B9B0707D4FE
:1029C000100003B0F0BCBB46B246A946A046F0BD1D
:1029D000B0464E46B9462F005D46531BB342EFD278
:1029E000541C4B4641462020B8472200F5E7F0B57D
:1029F000CE46474680B585B0944698460C9D0D9CC2
:102A00000EAB1B789946109A119B129EB7071CD4E7
:102A1000002B0CD0F7070AD54F46002F02D10C37F8
:102A2000374204D0013B02E030272F550134944255
:102A300001D21F2CF8D9F70707D59C4205D21F2CCD
:102A400003D830272F550134F5E7F70615D577055C
:102A500005D4002C03D0944224D09C4222D00F9A5B
:102A6000102A2BD00F9A102A30D00F9A022A35D074
:102A70001F2C02D830222A5501341F2C05D84A4673
:102A8000002A31D02D222A55013403960293019455
:102A9000009543466246FFF753FF05B0C0BCB946F8
:102AA000B046F0BD621E012C06D00F9F102F01D042
:102AB0001400D4E7023CD2E71400D0E7B206D1D428
:102AC0001F2CCFD878222A550134D1E7B206CCD5B5
:102AD0001F2CCAD858222A550134C9E71F2CC7D841
:102AE00060322A550134C3E7720703D52B222A55D9
:102AF0000134CAE73207C8D520222A550134C4E779
:102B0000F0B5DE4657464E464546E0B593B08146A1
:102B10008A46089209931CAB10CB1B789B461E9DDE
:102B2000219B9846002C03D1102342469A4390469D
:102B30008023DB0046461E4042461A4212D0002C3B
:102B400022D000260EE03033D9B2771C0AAB99555B
:102B50002900200000F0DCFFAC4216D31F2F14D850
:102B60003E0004002900200000F0D2FFCBB2092B68
:102B7000E9D94246920605D54121C918C9B20A3998
:102B8000C9B2E2E76121F8E7270043460693209B9C
:102B900005931F9B049303955B46029301970AAB31
:102BA0000093099B089A51464846FFF720FF13B04F
:102BB000F0BCBB46B246A946A046F0BDF0B5DE4625
:102BC00057464E464546E0B595B0089009910A92A1
:102BD0000B931E9E1F9C20AB1B789B46229B994605
:102BE000239D269B9A463300234303D1103352463C
:102BF0009A4392468023DB0057461F4052461A42B2
:102C000019D0330023432DD0002714E03033DAB23B
:102C10007B1C98460CABDA554A462B00300021004D
:102C200000F0B4FFA5421FD819D043461F2B1BD874
:102C3000474606000C004A462B003000210000F0F9
:102C4000A5FFD3B2092BE1D95246920605D5412200
:102C5000D218D2B20A3AD2B2DAE76122F8E7B14525
:102C6000E3D901E00023984653460693259B05933C
:102C7000249B04934B4603935B4602934346019384
:102C80000CAB00930B9B0A9A09990898FFF7AFFECB
:102C900015B0F0BCBB46B246A946A046F0BD000048
:102CA000F0B5DE4657464E464546E0B591B0834600
:102CB0008A460C9298461A9C08941B9D09952200FE
:102CC0002B002000290001F0DCF9002800D0E5E00D
:102CD00001225242D74B2000290001F0CDF90028F3
:102CE00000D0DBE001225242D34B2000290001F04A
:102CF000ADF9002800D0D1E000220023089E30006A
:102D0000099D290001F0A2F9002800D0DDE0089813
:102D10000999069007918023DB001E9A1A400D92B4
:102D20001E9A1A4201D106231C93069807990400A3
:102D30000D000A000600024300D1D1E0080D400555
:102D4000400DBE4CA44660440A03120BBC4B134317
:102D50001F0001F0A9F9BB4ABB4B01F038F9BB4A8F
:102D6000BB4B01F015F904000D000022B94B3000F7
:102D7000390001F008F9B84AB84B01F028F902000F
:102D80000B002000290001F003F901F0A5F98146AC
:102D900001F08AF904000D00B14AB24B01F017F9B5
:102DA0000022B14B01F0F4F801F096F90600AF4AA9
:102DB000AF4B2000290001F00AF904000D0030009B
:102DC00001F072F9AB4AAC4B01F001F902000B00C3
:102DD0002000290001F0D7F804000D0002000B00CC
:102DE00001F0F5F80A900B91A44BF31800261F058B
:102DF00022002B002000290001F0CAF80E900F914C
:102E000022002B0000208021C90501F0BCF804003D
:102E10000D0000229A4B0A980B9901F0BEF800228F
:102E2000984B01F0B5F802000B000A980B9901F0DD
:102E3000B4F80022944B01F0ABF802000B000A98A2
:102E40000B9901F0AAF802000B002000290001F004
:102E50009FF802000B000E980F9901F09EF80022D7
:102E6000774B01F095F832003B0001F0B0F8060016
:102E70000F0004000D00069A079B01F0FDF80028E2
:102E800030D001235B429C46E14400227D4B300060
:102E9000390001F082F804000D0023E01E9B04932A
:102EA0001D9B03931C9B0293089A099B009201931C
:102EB00043460C9A5146584600F0FCF811B0F0BC5D
:102EC000BB46B246A946A046F0BD002300240693A7
:102ED0000794069680231B069C46654407951AE7CF
:102EE000002399464B466333C62B1ED804261E9BEF
:102EF0001B0526D52B0023430FD0644A644B06984C
:102F0000079901F0B1F8002879D00022614B0698AA
:102F1000079901F09BF8002871D01C9B4B4506DDFA
:102F20004A46981A431E1C9303E00526DFE7002358
:102F30001C938023DB001E9A1A431E920026002356
:102F400099461D9B9E4264D29F1B02231E9A1A40E3
:102F50000A921E9A134202D0002E00D000274B4640
:102F6000002B07D022002B000698079901F015F8D6
:102F700006900791002200230898099901F066F84D
:102F8000002848D1444B1E9A1340049303971C9B7E
:102F90000293069B079C0093019443460C9A51466A
:102FA000584600F087F8002E00D187E71E9B9B064D
:102FB0003DD54525441C4346020051462800D847CC
:102FC0004B46DA179B18534005220592013E0496A2
:102FD000002203920A3202924A46D00F01900093D7
:102FE0004346220051465846FFF78AFD0A9B002BB4
:102FF00000D163E702005F460C9E1D9D54E01C9BC0
:10300000002B9ED00D9B002B9BD01C9B013B1C9347
:1030100097E7002799E7069C079D2200290080205A
:103020000006844661440B0006920793AAE76525D3
:10303000C0E7C046FFFFEF7FFFFFEFFF01FCFFFF90
:103040000000F03FFB799F501344D33FB3C8608B1F
:10305000288AC63F0000F83F61436F63A787D23FCD
:1030600071A379094F930A400000E03F1655B5BBA4
:10307000B16B0240EF39FAFE422EE63FFF0300003B
:1030800000002C4000002440000018402D431CEBA1
:10309000E2361A3F80842E41FFF7FFFF541C43465F
:1030A00051462020B8472200931BAB42F6D31000B4
:1030B00004E7C046F0B5DE4657464E464546E0B505
:1030C00095B00690079193469946209F1E9A1F9BA4
:1030D0001000190000F0D5FF002831D10122524222
:1030E000BF4B1E981F9900F0B1FF002837D1012275
:1030F0005242BC4B1E981F9900F0BEFF00283DD1E4
:103100000022B94B1E981F9900F0B6FF002850D13D
:103110000022B64B1E981F9900F098FF002848D156
:10312000002200231E981F9900F090FF002850D124
:1031300000239846229B5B0500D4B6E0002458E0AB
:10314000229B0393219B029303230193A84B00939B
:103150004B465A4607990698FFF7F2FB0EE1229B71
:103160000393219B029304230193A24B00934B46AC
:103170005A4607990698FFF7E3FBFFE00423229ADB
:103180001A4022990B4210D09B4B002A0FD00422E8
:103190002299039121990291019200934B465A463C
:1031A00007990698FFF7CCFBE8E0944BEDE7032284
:1031B000EEE7229B0493219B039302971E9B1F9C87
:1031C000009301944B465A4607990698FFF768FD0D
:1031D000D4E01E9A1F9B0020002100F0D4FE1E9018
:1031E0001F9101239846A5E70CAB30221A55013FE9
:1031F00001341F2C01D8092FF6D81E981F9900F012
:103200006BFF050000F050FF02000B001E981F9995
:1032100000F0B9FEFA007A4B9B181A685B680A92B4
:103220000B9300F0D4FE0890099100F079FF06009E
:1032300000F036FF02000B000898099900F0A3FE89
:103240000890099100226F4B00F016FF00282ED045
:103250000136300000F024FF02000B000A980B99A1
:1032600000F0FAFE002801D001350026002F2CD1F5
:10327000280000F019FF02000B001E981F9900F0B3
:1032800082FE06000F0000225E4B00F0DFFE0028E9
:1032900046D100225B4B3000390000F0EDFE0028E3
:1032A0003ED1EB073CD501353AE0062746E7002240
:1032B000544B0898099900F0C9FE0028D6D1002E79
:1032C00001D0F307D2D50136D0E7AA461F2C11D87A
:1032D000013F0A21300000F01BFC651C30310CABB3
:1032E00019550A21300000F013FC092E0ED90600F2
:1032F0002C00EBE755461F2C0CD87B1E002F09D065
:103300000CAA302111551F000134F4E72B0055465B
:103310001C00F0E71F2C03D80CAB2E221A550134E9
:103320001F2C10D80A21280000F0CAFB661C30317F
:103330000CAB19550A21280000F0C2FB051E01D074
:103340003400EDE734000323229A1340012B1CD0F4
:103350001F2C06D84346002B32D00CAB2D221A5519
:103360000134229B0393219B029301940CAB0093A5
:103370004B465A4607990698FFF7E2FA15B0F0BC9B
:10338000BB46B246A946A046F0BD219B002B13D0F8
:103390004346002B02D10C3313420FD0219B013B3B
:1033A0002193190003E00CAB30221A5501348C42F2
:1033B000CED21F2CF7D9CBE72199F8E72199F6E770
:1033C000229B5B0704D50CAB2B221A550134C8E7AE
:1033D000229B1B07C5D50CAB20221A550134C0E730
:1033E000FFFFEFFFFFFFEF7F65CDCD4165CDCDC185
:1033F000687901106C790110607901105C79011015
:10340000587B01100000E03FF0B5DE4657464E46BF
:103410004546E0B593B082468B469046119300290D
:1034200000D1EBE200275546119B1878002800D107
:10343000E7E2252809D07C1C43463A005946A847B4
:10344000119B013311932700EEE701331193002400
:10345000119A11780B00203BD8B2102803D88300B2
:10346000D048C3589F460B00303BDBB2092B2CD908
:103470002A292FD000230A93119B1A782E2A39D09B
:1034800000239A46119A1378683BD9B2122976D84C
:103490008B00C549CB589F4601231C430132119232
:1034A000D6E702231C4301321192D1E704231C43C7
:1034B00001321192CCE708231C4301321192C7E775
:1034C00010231C4301321192C2E711A8FFF726FA1C
:1034D0000A90D1E71C9B1A1D1C921868002804DB77
:1034E0000A90119B01331193C6E702231C43434208
:1034F0000A93F6E78022D20014435A1C11925A789C
:103500001300303BDBB2092B04D92A2A07D0002351
:103510009A46B7E711A8FFF701FA8246B2E71C9B6B
:103520001A1D1C921868002804DB8246119B013387
:103530001193A7E70020F8E780235B002343511C89
:10354000119152786C2A01D01C0018E0C0239B0016
:103550001C430131119112E080232343511C11912E
:103560005278682A01D01C0009E0C0231C430131B5
:10357000119104E080235B001C4301321192119BE6
:1035800018780300253BDAB2532A00D92CE29300C5
:10359000864AD3589F4680239B001C4301321192D8
:1035A000EDE780235B001C4301321192E7E77828A6
:1035B00009D0582838D06F2838D0622838D0102346
:1035C0009C430A2600E01026582833D0692803D0EF
:1035D000642801D00C229443630501D50122944351
:1035E00069282AD0642828D0A30500D59FE0E305E8
:1035F00000D5B8E0630600D4CAE01C9A111D1C91E6
:103600001168FF220A4005940A9B049353460393D2
:10361000029600230193009243463A00594628003F
:10362000FFF76EFA070027E01026CDE70826CBE764
:103630000226C9E720221443C8E7A30520D4E305E6
:1036400050D4630666D51C9A111D1C911168FF2287
:103650000A40D317D118594005940A9B0493534646
:1036600003930296D20F0192009143463A005946C5
:103670002800FFF745FA0700119B01331193D3E6A9
:103680001C9BDA1D07218A43110008311C91116827
:1036900053689C46DB170C930D930C9A0D9B1000FE
:1036A00048400E90624653400F930E980F990C9A23
:1036B0000D9B801A99410E900F9108940A9B0793D5
:1036C000534606930496002305936346DA0F02924D
:1036D0000090019143463A0059462800FFF76EFAE0
:1036E0000700C9E71C9A111D1C911268D317D11845
:1036F000594005940A9B0493534603930296D20FB4
:103700000192009143463A0059462800FFF7F8F924
:103710000700B1E7230605D51C9A111D1C91002353
:10372000D25E96E71C9A111D1C91126891E71C9BB2
:10373000DA1D07218A43110008311C9108940A9B65
:103740000793534606930496002305930293136848
:1037500054680093019443463A0059462800FFF705
:103760002DFA070088E71C9A111D1C9105940A9BED
:103770000493534603930296002301931368009326
:1037800043463A0059462800FFF7BAF9070073E7A5
:1037900023060DD51C9A111D1C9112681204120CDF
:1037A00031E7C04674790110B8790110047A01102C
:1037B0001C9A111D1C91126825E746281AD01C9BE3
:1037C0000733072293431A0008321C9204940A9A82
:1037D0000392524602925C681B6800930194434630
:1037E0003A0059462800FFF765FC0700119B01339A
:1037F000119319E620231C43E1E7672801D04728ED
:1038000002D180231B011C43452801D0472801D148
:1038100020231C431C9B0733072293431A000832C2
:103820001C9204940A9A0392524602925C681B68A6
:103830000093019443463A0059462800FFF730FAB6
:103840000700119B01331193EEE502231A00224079
:10385000924623421FD001241C9B1A1D1C927A1CE5
:103860009146187843463A005946A8475346002BDC
:1038700016D1119B013311934F46D5E5561C434693
:1038800059462020B847230032005C1C9D42F5D8E1
:103890003D001700E0E701233A002F000A9DF4E7FE
:1038A0004A46A9460A9D06E0571C43465946202031
:1038B000C84734003A00661CA542F5D84D469146EB
:1038C000D7E71C9B1A1D1C921B6899465346002B78
:1038D00000D1013B4E4601E0013613003278002A48
:1038E00002D05A1E002BF7D14B46F21A10928023B9
:1038F000DB0026001E401C4203D0524501D953462E
:10390000109302231A0022400B92234205D03A0062
:1039100037004C46A946554620E03A00109B5F46CA
:10392000B3462E0006E0551C434639002020B04720
:1039300023002A005C1C0A999942F4D835005E469F
:10394000BB46109437004C46A946554606E01D007C
:103950000134561C43465946C84732002078002897
:1039600004D0002FF4D06B1E002DF0D117004D466F
:103970000B9B002B03D1119B0133119354E50A9F3C
:10398000109B06E0561C434659462020A8472300BA
:1039900032005C1C9F42F5D81700ECE721231C4342
:1039A0001C9B1A1D1C921B6800930594082304930A
:1039B00053460393102302930023019343463A0096
:1039C00059462800FFF79CF80700119B013311931B
:1039D0002AE57C1C43463A0059462520A847119BFE
:1039E0000133119327001FE57C1C43463A005946DA
:1039F000A847119B01331193270015E50A4B9A46FE
:103A000010E5AA46474502D343465A1E00E03A0055
:103A1000434659460020D047380013B0F0BCBB469F
:103A2000B246A946A046F0BD0D29001000B585B0EC
:103A3000029003910121009313004A4202A9024817
:103A4000FFF7E2FC05B000BD0F290010014804217A
:103A5000014B184790070020893A0010014B9B68E2
:103A6000184700009007002010B5010018231B889C
:103A700014221088984710BD10B5010018231B8828
:103A800016221088984710BDF0B5C64600B507004D
:103A90000E0000250123984600E00135B5420AD208
:103AA000AC003C192068FFF7DFFF20600028F4D14C
:103AB00000239846F1E7404680BCB846F0BD0000C0
:103AC000124A936F9B0815D29066D166002905D0E3
:103AD000FFE7FFE7FFE7516F106F704704B58021E4
:103AE0000906C2175140002800D0C84313F010F84F
:103AF000002104BDF0B5146E556E576F166FFFF7B9
:103B0000E3FF1466556657671667F0BD000000D0E6
:103B1000114A936F9B0813D210665166002905D095
:103B2000FFE7FFE7FFE7516F106F704704B500280C
:103B300001D00020C04312F0EBFF002104BDC046BD
:103B4000F0B5146E556E576F166FFFF7E5FF1466EC
:103B5000556657671667F0BD000000D094464A4A84
:103B6000926F9208624601D228E0C046F0B5464EF8
:103B7000346E756E776F366F00F020F89446424AC7
:103B800014665566576716676246F0BD94463E4A0E
:103B9000926F9208624601D254E0C046F0B53A4EA8
:103BA000346E756E776F366F00F04CF89446364A77
:103BB00014665566576716676246F0BD002B24DB16
:103BC00011D000293EDA00B5C943404200D101318D
:103BD00000F038F8C943404200D10131DB43524282
:103BE00000D1013300BD002AEBD1002801D100290A
:103BF00005D00020C90FC90701D1C043410800B555
:103C000012F06EFF0022002300BD00B500290ADB80
:103C1000DB43524200D1013300F014F8C943404263
:103C200000D1013100BDC943404200D10131DB4325
:103C3000524200D1013300F005F8DB43524200D17B
:103C4000013300BD002923D1002B18D1002A0CD04C
:103C5000BC460D4F38667A6600210023FFE7FFE778
:103C6000FFE77A6F386F67467047002801D0074832
:103C7000010000B512F034FF0022002300BD020055
:103C80000B00002000217047000000D0FFFFFFFF65
:103C9000002B00D0BFE0130C28D1002AE7D080B45D
:103CA000114F39667A66FFE7FFE730B4040C7B6F8B
:103CB000396F1B0423433B667A66FFE7FFE7FFE7A4
:103CC000C04684B27B6F3D6F1B0423433B667A661C
:103CD000FFE7FFE7C04600232C042D0C7A6F386FF6
:103CE00000196941B0BC7047000000D0F0B594469F
:103CF0000025140E01D112020835140F01D1120152
:103D00000435940F01D192000235D40F01D1520035
:103D10000135D40B0134254F7C66254C3C660E0CD6
:103D200093B2FFE7FFE7FFE73C6F6643360C77038C
:103D3000BE467343DF0B5B04C01AB941130C7343D7
:103D4000DB18C91ACE086643360CB64493B27343E7
:103D50001F0F1B01C01AB941130C73431F0B1B0526
:103D6000C01AB941860D8F023E436643360C092DB9
:103D700024DB520A7243801A7703460A6643360CE4
:103D800016235B1BDE40DF40BF1964466643821B7F
:103D90007046043506330100D940A840C01900D34D
:103DA0000131A24206D20023F0BD0000000000D085
:103DB000FFFFFFFF121B0130F3D3F1E709277F1B41
:103DC000FE406446A2B27243801A00D20139220C2E
:103DD0007243130C1204821A99410B007046043589
:103DE00013370100F940A840801900D30131002B9E
:103DF00002D1A2420AD2F0BD013000D30131121B20
:103E0000FAD2013BF8D1A24200D2F0BD013000D37A
:103E10000131121BF7E7F0B51C0C00D080E00CB4A8
:103E200000251C0A04D11B02160E3343120208356A
:103E30001C0B04D11B01160F3343120104359C0BDC
:103E400004D19B00960F334392000235DC0B02D164
:103E500092185B4101351C00971864410134464FAC
:103E60007C66464C3C660E0CFFE7FFE7FFE7C0466A
:103E70003C6F6643360C7703BE4697B27743C01B50
:103E800000D20139C01B00D201399FB27743C91B50
:103E9000C91B170C77437E04FF0B801BB941CE086A
:103EA0006643360C0C2D33DBB644120B1F053A4328
:103EB0001B0B97B27743C01B00D201399FB27743E7
:103EC000C91B170C77433E043F0C801BB941860D7C
:103ED0008F023E43664329277F1BFE400C3D7746F9
:103EE000AF40BF1930BCA2B2ABB272437343801A69
:103EF0009941220C7243130C1204801A994102005A
:103F00000B000137001BA941F9D2781E0021F0BD3A
:103F10000C277F1BFE4077467F0BAF40FF19E0E781
:103F200000245D1C07D0144F7D663966FFE7FFE76C
:103F3000FFE7FFE73C6F95B29EB265436643401BC7
:103F4000B141150C1E0C6543664336042F0C3E43ED
:103F50002D04401BB141994204D202000B00200005
:103F60000021F0BD01D19042F7D3801A994101346C
:103F70009942F2D3F6E70000000000D0FFFFFFFFF8
:103F800048404140484018B4134B5B68019308BD5A
:103F900018B4114B1B68019308BD94460F4A926FE9
:103FA000920805D2624618B40B4BDB68019308BD3A
:103FB0000A4AF0B5146E556E576F166F6246FFF7DA
:103FC000F2FF064A1466556657671667F0BD18B4C7
:103FD000014B9B68019308BD4C250020000000D0D8
:103FE000FFB550404240504059404B40594000E0DE
:103FF000FFB5154F4C00640D03D0BC4204D10C0337
:1040000014D80020090D09055C00640D03D0BC42E2
:1040100004D11C030AD800221B0D1B0501264B40AE
:1040200009D44B4003D58B4200D18242FFBD994257
:10403000FCD19042FFBD0B43DB1803431343F5D083
:10404000C9434918FFBD0000FF07000000B5FFF796
:10405000CFFF804100BDC04600B5FFF7C9FF01D9C1
:10406000002000BD012000BD00B5FFF7B9FF01D958
:10407000002000BD012000BD00B5FFF7B1FF804169
:1040800000BD012040054A00121804D85A00121839
:1040900001D80020704701207047002070470000C1
:1040A0000021002805D17047C1174840401AFAD0B6
:1040B000C90713B5064B1B6898470CBC441CA240AB
:1040C0001005120B0349091B09051943114310BDC3
:1040D000502600201F04000010B54C00620D802304
:1040E000D218DB00D21A5B057E2A10DD9E3A13DA65
:1040F000CC170903490819435242D14064000134E6
:104100001532202A05DAD0400843604310BD002054
:1041100010BD0846604310BDC80FC018013810BD5F
:1041200018B4024B5B6A019308BD00004C250020C7
:1041300018B4024BDB6F019308BD00004C25002032
:1041400010B50148FEF7C4FBA87B011070B513231E
:104150001C78012C14D0012C14DC022C02DC1F4A28
:104160001F4B9A641F48FFF77FFC1F4B186070BD00
:1041700099001E481A4A885001331F2BF8D9EAE7E4
:104180000023FAE71A48FFF777FC05001948FFF704
:1041900073FC023803789B007F2B19DD80222900F5
:1041A0000F4800F02DF9022CD7D1134B1A88B523F4
:1041B0001B029A4209D1114B1A88114B9A4204D121
:1041C000104B1A88104B9A42C7D00020FEF780FB94
:1041D0000E4B0F4A32210F48FEF7E0FA1942001049
:1041E0004C2500204C330000502600204141001097
:1041F000534400005346000054380000D8380000F3
:10420000494600009C38000059460000C07B011060
:10421000607C0110147C011007B56046002800D1B5
:1042200000BE01880A0A0230DF2AFAD1C9B2820828
:1042300004D3028840880004104300E00068024A6A
:104240005050039007BD00004C25002051434343CC
:10425000C9188C46110C83B24B4310B4040C614353
:1042600092B280B2504362431C041B0C001910BC74
:1042700059411304120CC0185141614470470000A9
:104280004840414048400E4B5B6818470C4B1B6848
:1042900018470C4A936F9B0802D2094BDB681847FA
:1042A000F0B5146E556E576F166FFFF7F6FF054A9F
:1042B0001466556657671667F0BD014B9B68184733
:1042C00054260020000000D0C10FC90700D540428D
:1042D000002817D0F44603B40B4B1B68984706BC64
:1042E00081409E384042803107D20B0607D04900FA
:1042F000490AC0051043084360470130F8E7490AFE
:104300008902F5E77047000050260020014B5B6AE8
:104310001847000054260020014BDB6F18470000AF
:104320005426002010B50148FEF7D2FA6496051015
:1043300070B513231E781848FFF79EFB0500012E69
:1043400011D0012E09DDAB1E1B789B007F2B1DDDDC
:1043500080222900114800F053F81148FFF784FB30
:10436000104B186070BD542201000C4800F048F852
:10437000002300E001331F2BE3D89A00074C1259A9
:10438000002AF7D19A0008481051F3E7074B084A72
:1043900042210848FEF702FA534600005426002046
:1043A0004C3300005026002025430010747C01107F
:1043B000F07C0110A87C011010B5040011F068FE1B
:1043C000002804D00419034B9C4200D810BD0248B9
:1043D000FEF77EFA00000420047D011010B511F0F4
:1043E00061FE10BD01480421014B1847A0070020C1
:1043F000893A0010014B1B6818470000A0070020F5
:10440000014B5B6818470000A007002010B50300AF
:10441000080011001B68984710BD0000F8B50700A0
:104420000D001600437D002B02D0002400200CE07C
:1044300003681100280098472DE03B7D10E0022121
:1044400015483B689847601C0134B44214DA002CCC
:10445000F3DD2B19013B1B780D3B5A425341DBB274
:104460002A5D0A2AF0D1002BEED1A042E7DA211A08
:1044700028183B689847E2E7B04203DA311A281857
:104480003B689847002E06DDAD19013D2B780D3BAA
:104490005A4253413B75F8BD9C7D011070B5050033
:1044A0000368002B16D00C4B1C6805E0290004C9DA
:1044B0002000FFF7B3FF2469002C09D02368002BEC
:1044C000F9D0064B1B68002BF0D0A342F3D1EDE7E7
:1044D00000232B6070BDC046181E0020301E002037
:1044E00070B505000C000B68802B05D021684B1CB3
:1044F00023606418257170BD0800FFF7CFFFF5E752
:1045000010B5FDF765FB02000B1E0BDB0D4800210B
:1045100012184B41002B0BDB002B0DDB0A4812F06D
:104520000FFB10BD094B0A4A3F210A48FEF736F936
:1045300001225242084BEFE7044B054A3F21054850
:10454000FEF72CF940420F0050100020CC700110F3
:10455000847D0110E8700110FFFFFF7F10B5024855
:1045600012F0B6FA10BDC04650100020F0B5CE468D
:10457000474680B583B006000D0090461C00FFF74B
:10458000BFFF81466B1C05D0002C08D0194F1A4B79
:104590001C6807E0300012F0EDF80500F4E7174F53
:1045A000F5E72469002C17D02368002BF9D0144BB1
:1045B0001B68002B01D0A342F3D12A003100200058
:1045C000B8474346002BECD06B46D91D0A230B702D
:1045D00001222000B847E4E74B46002B07D16B1EB1
:1045E0009D41E8B203B0C0BCB946B046F0BDFFF78C
:1045F000B5FFF4E70D440010181E00201D44001004
:10460000301E0020094A01E010331A001368002B05
:1046100008D08342F8D1002907D103691360002331
:10462000036102E0002900D010607047181E0020CE
:1046300010B5064B1C6801E098472469002C03D094
:104640006368002BF8D1F8E710BDC046181E0020A3
:1046500070B5050012F08EF804000023012201005D
:104660002800FFF783FFFFF7E3FF200070BD000085
:1046700070B5A2B004000E00FFF742FF0500002352
:1046800001933300220001A90848FFF7CFF9040085
:1046900001A8FFF703FFFFF7CBFF002D02D1200099
:1046A00022B070BDFFF75AFFF9E7C046E1440010A1
:1046B0000FB400B583B004A901C90191FFF7D8FF79
:1046C00003B008BC04B0184710B500F0F9F8012099
:1046D00010BD0000F0B583B005000E0000240FE00F
:1046E0006B46D91D0D230B700020002816D193694D
:1046F0009B06FCD40B78136001300131F5E70134DF
:10470000B44219DA0D4B1A682F5D0D4BD31859427C
:104710004B415B000B495B5EBB42E1D06B46D91D50
:104720000F7000200028EAD193699B06FCD40B7817
:10473000136001300131F5E703B0F0BDDC29002042
:104740000080FCBFD8290020F0B583B006000F0020
:10475000002504E06B4607331B782B702500BD4213
:1047600015DA174B1A6893691024210019401C426E
:104770000DD16C1C75196B46D81D0029EAD19369BF
:10478000DB06FCD41368037001310130F5E70D4BF3
:104790001B68002B0CD00A4B1A685023936311003E
:1047A0003431536B38221A4080235B010B431A606B
:1047B000002D02D0280003B0F0BD033DFAE7C0464B
:1047C000DC290020A814002010B5064B1B68002B24
:1047D00006D0054A126800219163044A1068984780
:1047E00010BDC046A8140020DC290020AC14002015
:1047F00070B504000E001C4B1B681C4A98184242FE
:10480000504114300500002C03D0194A1268002AC8
:1048100006D0002C19D0164B1C60164B1E6070BDC4
:104820001549FCF7C9F801212800FCF7ADF80E4B3B
:104830001A685023936311003431536B38221A40A5
:1048400080235B010B431A60E5E7094A1268002ADE
:10485000E1D000229A6300212800FCF795F8064970
:104860002800FCF7EDF9D6E7DC2900200080FCBF2A
:10487000A8140020AC140020C947001070B50D002A
:104880001C000D4B1860002A0BDA002C0EDA0A4BC4
:1048900018682900FDF76AFD01210848FFF7B2FEFC
:1048A00070BD02211000FBF787FEEEE70221200019
:1048B000FBF782FEEBE7C046DC290020B0070020B2
:1048C00010B5064B1B78064B1B78E1210123002213
:1048D00049020448FFF7D2FF10BDC046A099051059
:1048E000A499051000400340014B1B68036070470A
:1048F000681200200068431E9841C0B27047000053
:1049000070B582B004000D001000E388DB0508D507
:10491000218900230093044B1E6800232A00B0471E
:10492000208202B070BDC046701200200023024AEF
:104930001360024A138070476C120020AE2A0020D8
:104940000D2802D0072809D07047094B1B788342F5
:10495000F8D0074B1860074B1980F5E7044B1B682C
:10496000002BF1D1024B1860024B1980ECE7C046D6
:104970006C120020AE2A002010B50400002100684F
:1049800008F01FFAA080002807D10023E3802381CC
:10499000E36023826361236010BD0221206808F078
:1049A00010FAE0800421206808F00BFA20812368C7
:1049B0009A1DE260E288920509D5A288163A228201
:1049C0001A0016326261A2889B182360E4E7A2886D
:1049D000083A22821A0008326261F4E770B50400D6
:1049E0000D1E01D1002070BDFFF77EFF2000FFF7F4
:1049F00081FF0028F7D02000FFF7BEFF2389AB42DC
:104A0000F4D10120EFE7000010B50289074B1A80AE
:104A1000C3889B0503D5064B00221A8010BDC068D1
:104A2000002108F0CEF9024B1880F7E7AA2A0020EF
:104A3000AC2A002070B504001D00012303704170F2
:104A4000022108F0D0F92571052070BD70B506006F
:104A500015001C000A000121049808F0C4F97188AF
:104A60000339200008F02AFA0300049AD01C1B0422
:104A70001A0C2900FFF7C4FC0334A0B270BD00007B
:104A8000F0B5D6464F464646C0B588B088469246F1
:104A90001F0010AB1B889946B2234A46019200972B
:104AA000FF33364A364901200BF0B2FD4F4501D89D
:104AB000002F0DD101233A0004214046FFF7BAFF31
:104AC0000400200008B0E0BCBA46B146A846F0BDDC
:104AD00002A8FFF709FF002601241AE00223012C97
:104AE00001D99E423BD1012C2ED0A319023353454C
:104AF00035D802AD2A892100404608F074F9023405
:104B0000A4B24346181905993200FFF779FC34190D
:104B1000A4B202A8FFF7EEFE002820D002AD2800C4
:104B2000FFF72AFF2D89002D19D04D4517D8BD421A
:104B3000EFD302ABDA8880239B00110019401A42A0
:104B4000CCD0F13BFF3BCAE7002906D00222414608
:104B50000A550134A4B21E00C7E70122F7E7012C71
:104B600003D0052342461370ABE70A233A00042121
:104B70004046FFF75FFF0400A3E7C046E07D011059
:104B8000EC7D0110F0B5C64600B582B005000F00FF
:104B90001C0008AB1E88052A09D00423002204212A
:104BA0002000FFF747FF02B080BCB846F0BD0121EE
:104BB000380008F006F980460321380008F001F9B2
:104BC00000904346320021002800FFF759FFEAE732
:104BD00070B582B00400150006AE3088E688F20594
:104BE00009D5268900930B4B1C682B000A00310065
:104BF000A04702B070BD208A401A190008F05EF983
:104C000061690004040C22002800FFF7F9FB200072
:104C1000EFE7C0467012002070B5050008001400D0
:104C20001E00032A06D00423002202213000FFF7D1
:104C300001FF70BD012108F0C4F8A98808F03EF911
:104C40000104090C172008F03FF90123AB716880BB
:104C5000023333706A880121300008F0C4F8200064
:104C6000E7E7000070B504000C22094911F0E6FCEA
:104C7000051E0BD120000E30054902220E3111F025
:104C8000DDFC002800D10135280070BD0025FBE7C0
:104C90003882011070B50C000389002B18D0C3882E
:104CA0009B050DD5C5682800FFF7DCFF002810D054
:104CB0000C21280008F085F8001B4342584108E009
:104CC000C068002108F07DF8001B4342584100E015
:104CD000002070BD10B50C00022806D00800FFF7B8
:104CE000C1FF002806D1002010BD0021200008F0DF
:104CF00068F8F9E70C21200008F063F8F4E70000F9
:104D0000F0B5DE4657464E464546E0B591B00E003A
:104D1000150005931AAB1B889846062A37D901213E
:104D2000300008F04EF8070007908246032130005B
:104D300008F047F8040081460521300008F041F8EA
:104D4000069007360996073DADB208958623029076
:104D5000019400979B004C4A4C4901200BF058FCF1
:104D60002900300008F01EF9A74201D8002F16D103
:104D70000123079A06210598FFF75CFE050028002D
:104D800011B0F0BCBB46B246A946A046F0BD042314
:104D9000002206210598FFF74DFE0500EFE70AA85F
:104DA000FFF7A2FD0027002301251E0016E08D233A
:104DB00000979B00344A364901200BF029FC3A0049
:104DC0002900059808F00FF80235ADB22B1D4345B8
:104DD0004BD800260AAB1F89002F22D10AA8FFF763
:104DE00089FD8346002840D00AAC2000FFF7C4FDAF
:104DF0002389002B01D05345F0D34B4535D8002EE5
:104E0000E8D0002BD3D0A02189010AA8FFF742FFE8
:104E10000028CCD11F490AA8FFF73CFF0028D9D0B1
:104E2000C5E706991800FFF735FF0028D6D00AAB72
:104E30001A8A089B9A42D1D10F99099811F0FEFB6A
:104E40000028CBD10AAE3289912300929B000E4AF2
:104E5000114901300BF0DCFB32892900059807F07D
:104E6000C2FF0235ADB25E46B8E7012D03D007237D
:104E7000059A137083E70A23079A06210598FFF71E
:104E8000D9FD05007BE7C046E07D0110247E0110BE
:104E9000747E011001280000987E011070B5040096
:104EA0000D000389002B26D0022A14D0C3889B054D
:104EB0001AD40800FFF7D6FE00281DD00C212800C8
:104EC00007F07FFF0500E068002107F07AFF281A4D
:104ED0004342584110E00021280007F072FF010012
:104EE0002000FFF7D7FE07E0C068102211F0A6FBF4
:104EF0004342584100E0002070BD0000F0B5DE469E
:104F000057464E464546E0B591B088461F001AAB5D
:104F10001B889A461BAB1C88069407920292534644
:104F200001930097564B574A574901200BF070FBED
:104F300021001C9808F036F8574501D8002F0ED1F3
:104F400001233A0010214046FFF774FD04002000C1
:104F500011B0F0BCBB46B246A946A046F0BD1C99B4
:104F60000698FFF7B7FE494B9C46604480B2012883
:104F70000AD80AA8FFF7B8FC0023994609930893BA
:104F8000059301241E0029E010233A001021404619
:104F9000FFF750FD0400DAE7089A2100404607F0C9
:104FA00022FFA11C89B24A46404607F01CFF043488
:104FB000A4B243461819321F0999FFF721FA341990
:104FC000A4B2043CA4B2A319079A9A4249DB002375
:104FD00005930AAB1B899946002B23D10AA8FFF73A
:104FE00089FC834600283CD00AAD2800FFF7C4FCAA
:104FF0002B89002B01D0BB42F0D3534531D8059A01
:10500000002AE6D0002BC7D0A02189010AA8FFF70B
:1050100041FE0028C0D11E490AA8FFF73BFE002828
:10502000D7D0B9E7069A1C990AA8FFF737FF0028DE
:10503000D4D00AAB1B8A04339BB2012C01D99E4207
:105040000FD1012C07D00AAB1A8908920F9B099344
:105050005B460593C2E7424613550134A4B21E00D5
:10506000F1E7012C03D01123424613706FE70A23A6
:105070003A0010214046FFF7DDFC040067E7C04618
:10508000BE030000E07D0110C07E011000D8FFFFCC
:1050900001280000F0B5C64600B586B005900C00AA
:1050A0001F000CAE3688072A08D0152A08D0042322
:1050B000002210213800FFF7BDFC15E0022500E0BA
:1050C00010250121200007F07CFE804603212000EE
:1050D00007F077FE053402940195009043463200B4
:1050E00039000598FFF70AFF06B080BCB846F0BD4E
:1050F00010B5002303704370002913D0012923D178
:10510000D388DB0701D501230370D388DB0603D5E1
:10511000037802210B430370D3881B0613D50123A8
:10512000437010E0D3885B0501D501230370D38859
:105130001B0503D5037802210B430370D3889B061C
:1051400001D50123437010BD6621034B034AFF3193
:105150000348FDF723FBC0468CB4011014820110F4
:10516000147F011030B583B00500140001A8FFF7CB
:10517000BFFFE3881B0B00D0013301AA5278002A3D
:1051800004D0AA7A002A0ED0002200E000221100EA
:1051900001AA1278022A0DD0032A06D0012A0ED0C5
:1051A000002003B030BD0122F1E76A7A002A12D054
:1051B000002912D12A7A002A11D0002911D1002BFE
:1051C00004D0EA79002A0ED000290ED1EA799A4259
:1051D0000DD30020E5E70820E3E70820E1E70520FC
:1051E000DFE70520DDE70F20DBE70F20D9E70C2004
:1051F000D7E70000F0B5DE4657464E464546E0B5D7
:105200008DB08146884604921E0016AB1F8817ABEE
:105210001B889A4601970096584B594A59490120D4
:105220000BF0F6F95146189807F0BCFEBE4201D8C3
:10523000002E0ED10123320008214046FFF7FAFB71
:10524000040020000DB0F0BCBB46B246A946A04603
:10525000F0BD06A8FFF748FB00239B460593039388
:10526000012440E006AA00214846FFF77BFF059095
:1052700000285AD14B461A8806AD00212800FFF7B6
:105280003FFB2B8AFE22120293424CD802339BB280
:10529000012C02D9039A9A4247D1012C55D0039B85
:1052A000E318049A934208DD022C3ED8131F9BB2E8
:1052B00006AA138202334246537004AB1A8A2100B5
:1052C000404607F090FD0234A4B204AB1B8B42466B
:1052D0001219494609880091002106A8FFF778FCB9
:1052E00080B22418A4B206A8FFF704FB00281CD043
:1052F00006AD2800FFF740FB2B89002B15D0BB42E1
:1053000013D8B342EFD3524618992800FFF7C6FDD1
:105310000028E8D0EB889B07A4D45B46002BE2D1A1
:105320002B899B46DFE7DBB20593012C13D8059B45
:10533000002B14D15B46002B18D10A233200082120
:105340004046FFF777FB04007BE7424613550134E4
:10535000A4B20393A3E709234246137071E7320016
:1053600008214046FFF766FB04006AE702235A461D
:1053700008214046FFF75EFB040062E75A02000086
:10538000E07D0110507F0110F0B5C64600B586B033
:1053900005900C001F000CAE3688072A08D0152A8D
:1053A00008D00423002208213800FFF743FB15E052
:1053B000022500E010250121200007F002FD8046B3
:1053C0000321200007F0FDFC0534029401950090B4
:1053D0004346320039000598FFF70CFF06B080BC49
:1053E000B846F0BDF0B58BB007000D0003921C006D
:1053F000B72300949B00264A264901200BF008F9A8
:10540000210004A8FFF7EAFA002825D004ABDB88C6
:105410009B0728D504AA00213800FFF7A3FE031E2E
:1054200029D13A8804AE00213000FFF769FA338AA7
:10543000FE221202934224D8039E013EB3B26A1C9C
:1054400039880091002104A8FFF7C2FB80B2013027
:1054500080B20B232B700CE0012322000A212800CC
:10546000FFF7E8FA05E0022322000A212800FFF7EF
:10547000E1FA0BB0F0BD22000A212800FFF7DAFAAA
:10548000F7E7DBB222000A212800FFF7D3FAF0E7A2
:10549000E07D01108C7F011070B5050008001C0034
:1054A00004AB1E88032A06D0042300220A21200010
:1054B000FFF7C0FA70BD012107F083FC0300320042
:1054C00021002800FFF78EFFF4E70000F0B5CE467C
:1054D00000B58AB007000D0003921C0010AB1E88B7
:1054E00001960094304B314A314901200BF090F87D
:1054F000210004A8FFF772FA002821D004ABDB8852
:105500009B0724D504AA00213800FFF72BFE031EB9
:1055100027D13A8804AB994631001800FFF7F0F91B
:105520004B461B8AFE221202934220D8B34225D357
:105530000D232B7004AB1B8AB34226D801200CE04C
:10554000012322000C212800FFF774FA05E0022352
:1055500022000C212800FFF76DFA0AB080BCB94682
:10556000F0BD22000C212800FFF764FAF5E7DBB25A
:1055700022000C212800FFF75DFAEEE70723220046
:105580000C212800FFF756FAE7E7039B013B9BB28B
:105590006A1C39880091310004A8FFF719FB80B21A
:1055A000013080B2D9E7C04616030000E07D01104B
:1055B000B47F0110F0B5C64600B582B005000F00FB
:1055C0001C0008AB1E88052A09D0042300220C21E8
:1055D0002000FFF72FFA02B080BCB846F0BD0121D1
:1055E000380007F0EEFB80460321380007F0E9FBA6
:1055F00000904346320021002800FFF767FFEAE7EA
:10560000F0B5DE4657464E464546E0B58BB007003E
:105610008B4691469A46D623524600929B00354AC5
:10562000354901200AF0F4FF0023039300260025EA
:105630000124554548D26900149807F0C2FB0100C7
:10564000031E03902DD004A8FFF7C8F9002830D01E
:1056500004ABDB889B0736D504AA00213800FFF78E
:1056600081FD061E30D13A8804AB9846002118000F
:10567000FFF746F943461B8AFE221202934220D8C6
:105680004B461B1B9BB25A461219398800910021C8
:1056900004A8FFF79DFA80B22418A4B20135ADB278
:1056A000C7E7013302000E215846FFF7C3F9040093
:1056B0000FE00123039A0E215846FFF7BBF90400BF
:1056C00007E0DEB200E00226002E0AD10F235A4680
:1056D000137020000BB0F0BCBB46B246A946A046F2
:1056E000F0BD3300039A0E215846FFF7A3F90400DA
:1056F000EFE7C046E07D0110EC7F011030B583B0CC
:1057000005001400180006AB1A88042C01D9E30721
:1057100006D4042300220E21FFF78CF903B030BD1C
:10572000013C6408A3B20131009101002800FFF799
:1057300067FFF3E7F0B58BB003900E0014001F0075
:10574000022A31D90121300007F03BFB050001009E
:1057500004A8FFF743F900282ED02C4B1B68002B20
:1057600031D004ABDB881A0734D5DB0539D504AA60
:1057700001210398FFF7F6FC031E39D104A8FFF7B7
:1057800043F9039B1888033CA4B2019403360096A6
:105790001E4B1C68002300222900A04700282DD1A1
:1057A00013233B70012005E004230022122138005E
:1057B000FFF740F90BB0F0BD01232A001221380099
:1057C000FFF738F9F6E703332A0012213800FFF714
:1057D00031F9EFE703232A0012213800FFF72AF9F5
:1057E000E8E703232A0012213800FFF723F9E1E755
:1057F0002A0012213800FFF71DF9DBE7C3B22A00A7
:1058000012213800FFF716F9D4E7C0467C120020B9
:10581000F0B5D6464F4680B58BB006000D0014009B
:105820001F0012AB1B889A46042A39D9012128008F
:1058300007F0C7FA81460321280007F0C2FA039057
:10584000374B1B68002B36D0494604A8FFF7C6F833
:10585000002837D004ABDB881A073AD5DB053FD5E3
:1058600004AA01213000FFF77DFC00283FD13088D9
:10587000631F9BB201936B1D0093294B1E68039B12
:1058800001224946B047072838D00D2836D00028D5
:1058900038D0C3B24A4616213800FFF7CBF805E0EE
:1058A0000423002216213800FFF7C4F80BB0C0BC57
:1058B000BA46B146F0BD03334A4616213800FFF719
:1058C000B9F8F3E701234A4616213800FFF7B2F88A
:1058D000ECE703234A4616213800FFF7ABF8E5E76B
:1058E00003234A4616213800FFF7A4F8DEE7030039
:1058F0004A4616213800FFF79DF8D7E7C0B249465F
:10590000FFF71EF85146200007F0D8FA0204120CE7
:1059100029003800FEF774FD17233B702000C5E70F
:105920007C120020F0B58BB003900D0014001F0016
:10593000022A01D80BB0F0BD0121280007F041FA7E
:105940000600144B1B68002BF4D0010004A8FFF7DD
:1059500045F80028EED004ABDB88DA05EAD51F4213
:10596000E8D004AA0121039F3800FFF7FBFB0028C1
:10597000E0D104A8FFF748F83888033CA4B20194AA
:1059800003350095034B1C68002300223100A0471B
:10599000D0E7C0467C12002010B582B0041E08D0AB
:1059A0000378012B07D0EA23084A094902200AF0AC
:1059B0002FFE02B010BD0090ED23044A05490120DE
:1059C0000AF026FE0134044B1C60F2E7E07D011072
:1059D000208001107C80011068120020014B1860AB
:1059E0007047C04670120020014B18607047C046D7
:1059F0007C12002010B582B0008800230193009330
:105A0000034B1C68002303220021A04702B010BDF5
:105A10007C12002070B582B004001D00012A25D937
:105A2000234B1E68002E28D04B78002B3CD0214BF6
:105A30001B68002B07D100880193009304220021EA
:105A4000B0471C4B18601B4B1B68002B1CD12088D7
:105A5000002301930093164B1C68002302220021AF
:105A6000A04719232B70012002B070BD042300222F
:105A700018212800FEF7DEFFF6E703230022182195
:105A80002800FEF7D7FFEFE72000FFF7B3FF094B31
:105A90001E78094B1C88FEF749FF330022001821AD
:105AA0002800FEF7C7FFDFE7FFF7A4FFD9E7C046EE
:105AB0007C1200206C120020AE2A002030B583B08A
:105AC0001B24069D2C700095FEF7C0FF03B030BD6F
:105AD000F0B583B01C0046880D78522D3FD8AB003E
